:060000000A128A110C280F
:10000800FE00030EF0000A08F1000A168A11EB2B15
:100018000A128A110F288313E630FD001130FE0002
:10002800EB30FF00CD3084000A168A11C7210A126E
:100038008A11A0308400CD300A168A155A270A1270
:100048008A11523084005C300A168A155A270A121F
:100058008A11FA01FB0183010A128A11332801303F
:1000680083160317A400A3019C01831603136308D6
:10007800831603179E008316031364088316031759
:100088009F0083160313650883160317A000CD305D
:100098008400903083120313CE000C30CF008313FA
:1000A8000008D000040AD1004E08840083175008C5
:1000B8008000040ACE0051088400CF0B5328831611
:1000C8000317A1010A168A1157240A128A119E30B1
:1000D80083120313A1000130A200A3010A168A119A
:1000E80018260A128A119930F7009130F80000306A
:1000F8000A168A11AC220A128A110A128A150020DD
:100108000A128A1183160317A5003E302506031D1F
:100118008E288F28AC289E30F200B830F30091303A
:10012800F4000A168A1143220A128A119E30831299
:100138000313A1000130A2008316031723088312BA
:100148000313A3000A168A1118260A128A111D2AF7
:100158003D302506031DB128B228E32806302102C8
:100168000318B728B828E3289E30F2002108831224
:100178000313CE004E07903E840083170008F30057
:10018800840A00088403F4000A168A1143220A121A
:100198008A11013083160317A1079E3083120313B7
:1001A800A1000130A200831603172308831203134A
:1001B800A3000A168A1118260A128A111D2A3B3032
:1001C8002506031DE828E928062921080319ED2832
:1001D800EE2806290130A1029E30F2002108831280
:1001E8000313CE004E07903E840083170008F300E7
:1001F800840A00088403F4000A168A1143220A12AA
:100208008A11D1283730250603190B290C29122900
:100218002F302506031D1129122944292403031D03
:100228001629172944290230A4001130A2000A1601
:100238008A15B8270A128A11E730F6009030F700BD
:100248008130F8000A168A115A230A128A11F2011B
:10025800C4300A168A1121240A128A11F2010F30B9
:100268000A168A1121240A128A11A530831203134F
:10027800CE00CE0B3D2940298312031312151D2AE7
:1002880080302506031D49294A29DF290330240621
:10029800031D4F295029DF29CE290A168A15B827A8
:1002A8000A128A11B23083120313A1009130A200FE
:1002B80083160317230883120313A3000A168A114F
:1002C80018260A128A11053083160317A400233052
:1002D800A20040290630A4000A168A15B8270A1277
:1002E8008A111D2A0A168A15B8270A128A11AF30F0
:1002F80083120313A1009130A20083160317230869
:1003080083120313A3000A168A1118260A128A11E7
:100318009E30F6009130F7008530F8000A168A11F1
:100328005A230A128A117E30F6009130F700C43041
:10033800F8000A168A115A230A128A1107308316FE
:100348000317A4001D2A0A168A15B8270A128A114B
:10035800BE3083120313A1009130A2008316031745
:10036800230883120313A3000A168A1118260A12F7
:100378008A11083083160317A4002430A2004029EC
:100388000930A4001130A2000A168A15B8270A12EB
:100398008A1140291D08003A03195129013A031905
:1003A8006E29033A03197629013A0319A729073A4E
:1003B8000319C4291D2A80302506031DE429E529CF
:1003C800F72905302406031DEA29EB29F7290A161F
:1003D8008A15B8270A128A11033083160317A40056
:1003E8005530A200402980302506031DFC29FD292F
:1003F800042A09302406031D022A032A042AEB29A9
:1004080090302506031D092A0A2A1D2A03302406CE
:10041800031D0F2A102A1D2A0A168A15B8270A1240
:100428008A11013083160317A400831203131211D3
:100438001D2A0A168A15DB270A128A1172088312E6
:100448000313CE007308CF00D001D1015108F90081
:100458005008F8004F08F7004E08F60000300A125E
:100468008A15E1200A128A11790883120313B10050
:100478007808B0007708AF007608AE004130AD00CC
:100488002430AC000030AB000030AA000A128A15F4
:1004980067240A128A11831203132D08C7002C0837
:1004A800C6002B08C5002A08C4000A128A156B204A
:1004B8000A128A1183120313440883160317A30030
:1004C8005E2B9E3083120313A200831603172308A2
:1004D80083120313A3000A168A116D250A128A11C2
:1004E800782B013083160317A4000A168A15B8273B
:1004F8000A128A11F2010C300A168A1121240A12F2
:100508008A11A53083120313CE00CE0B892A8C2AB8
:10051800831203131211782B033083160317A400D8
:10052800F2010C300A168A1121240A128A11A53008
:1005380083120313CE00CE0B9F2AA22A55308316AE
:100548000317A200831203131215812822088312AD
:100558000313A2008316031725080A128A153126E9
:100568000A128A11333A0319752A773A0319902A1D
:10057800782B220883120313A20083160317250879
:100588000A128A1597210A128A11831603179D00E9
:1005980033301D06031DD12AD22A782B0A168A1554
:1005A800B8270A128A11013083160317A4008C2A6F
:1005B800220883120313A2008316031725080A12C0
:1005C8008A1556230A128A11333A031DEC2AED2A9A
:1005D800782B013083160317A4000A168A15B8274A
:1005E8000A128A118C2A0A168A112D230A128A11D4
:1005F8000A168A15B8270A128A11013083160317BA
:10060800A400782B0A128A1553220A128A11333051
:1006180083120313D000BB30CF00DF30CE00CE0BE7
:10062800132BCF0B132BD00B132B0330831603176D
:10063800A400A22A033083160317A4005530A20091
:100648000A168A15B8270A128A11A62A22088312BE
:100658000313A2008316031725080A128A117F23A1
:100668000A128A11333A0319D22A443A03191E2B63
:10067800782B0A168A15B8270A128A11192B250809
:1006880083120313CE00CF014E08A2004F08A30027
:1006980083160317220883120313A4000A128A116F
:1006A80059260A128A11333A0319D22A443A0319ED
:1006B8003D2B782B2408013A0319652A033A0319BC
:1006C800AA2A013A0319BD2A063A0319DC2A033A71
:1006D8000319F72A013A0319062B0F3A03192A2B93
:1006E800013A0319432B782B83160317A20181289B
:1006F8000A128A110C2883120313AA002430220636
:10070800031D872B882BE72B0A168A1120250A122E
:100718008A110F3083160313430583120313A300B2
:100728000A30F2008316031342080F390A168A1595
:10073800ED270A128A11831203132307D2000F3000
:1007480083160313450583120313A3000A30F2002E
:100758008316031344080F390A168A15ED270A125F
:100768008A11831203132307D3000F308316031350
:10077800470583120313A3000A30F20083160313FC
:1007880046080F390A168A15ED270A128A118312AC
:1007980003132307D4008B30F6009030F700803025
:1007A800F8000A168A115A230A128A11023083168F
:1007B8000313AB00AA01A901A8010A30831203138D
:1007C800DA003F30AA005A08031DEB2BEC2BEE2B66
:1007D8003330582E8316031328080319F42BF52BEE
:1007E800282D6630582E831603132B08523E84009A
:1007F800013083138007073083120313DA00352D85
:100808000330F2000030F300831603132B08013E77
:10081800F400003003180130F5000A168A11C125CA
:100828000A128A11720883160313AB00FF2B0A16EB
:100838008A1120250A128A110A30F2000030F300CA
:10084800831203135208A300A4012308F400240808
:10085800F5000A168A11C1250A128A117208831234
:100868000313A5007308A6000A30F2000030F30055
:100878005208A700A8012708F4002808F5000A165E
:100888008A11D4260A128A11720883120313A90046
:1008980003300310A90DFF3E031D4D2C0310290D35
:1008A8002504AB00831603132008C03983120313F1
:1008B8002B0483160313A0002008F30002300A1645
:1008C8008A1104220A128A110A30F2000030F30059
:1008D800831203135308A300A4012308F400240877
:1008E800F5000A168A11C1250A128A1172088312A4
:1008F8000313A5007308A6000A30F2000030F300C5
:100908005308A700A8012708F4002808F5000A16CC
:100918008A11D4260A128A11720883120313A900B5
:1009280003300310A90DFF3E031D952C0310290D5C
:100938002504AB008316031321088039831203139F
:100948002B0483160313A1002108F30001300A16B3
:100958008A1104220A128A110A30F2000030F300C8
:10096800831203135408A300A4012308F4002408E5
:10097800F5000A168A11C1250A128A117208831213
:100988000313A5007308A6000A30F2000030F30034
:100998005408A700A8012708F4002808F5000A163B
:1009A8008A11D4260A128A11720883120313A90025
:1009B80003300310A90DFF3E031DDD2C0310290D84
:1009C8002504AB008316031322088039831203130E
:1009D8002B0483160313A2002208F30000300A1622
:1009E8008A1104220A128A110A168A15B8270A12CD
:1009F8008A110430F6009130F7008230F8000A16A8
:100A08008A115A230A128A112B30F6009130F70006
:100A1800C230F8000A168A115A230A128A110130C4
:100A280083160313A800273083120313A5000D3083
:100A3800A4002530A300A30B1F2DA40B1F2DA50B6D
:100A48001F2D262D7730582E831203132A082F3A8C
:100A58000319042C183A0319F72BB73A03191B2C5E
:100A6800352D18305202031C3A2D3B2D3C2DD20156
:100A78003C305302031C412D422D432DD3013C3001
:100A88005402031C482D492D4A2DD40101308316E8
:100A98000313A90702302906031D532D542DA12D38
:100AA800A9012A080319592D5B2D01305C2D00304E
:100AB800AA002A080319612D622DA12D962D443014
:100AC800F6009030F700C030F8000A168A115A2351
:100AD8000A128A11053083120313A5005030A400AE
:100AE800DF30A300A30B762DA40B762DA50B762D56
:100AF8007D2DA12D4430F6009030F700C330F8006A
:100B08000A168A115A230A128A116E2D4430F600E9
:100B18009030F700C630F8000A168A115A230A12D4
:100B28008A116E2D2B08003A0319632D013A031917
:100B38007E2D033A03198A2DA12DC0308312031389
:100B4800A0000A30F2000030F3005208A300A4010C
:100B58002308F4002408F5000A168A11D4260A127C
:100B68008A117208303E0A168A11D6210A128A1191
:100B7800C13083120313A0000A30F2000030F300E2
:100B88005208A300A4012308F4002408F5000A165B
:100B98008A11C1250A128A117208303E0A168A1172
:100BA800D6210A128A11C23083120313A0003A30E8
:100BB8000A168A11D6210A128A11C3308312031326
:100BC800A0000A30F2000030F3005308A300A4018B
:100BD8002308F4002408F5000A168A11D4260A12FC
:100BE8008A117208303E0A168A11D6210A128A1111
:100BF800C43083120313A0000A30F2000030F3005F
:100C08005308A300A4012308F4002408F5000A16D9
:100C18008A11C1250A128A117208303E0A168A11F1
:100C2800D6210A128A11C53083120313A0003A3064
:100C38000A168A11D6210A128A11C63083120313A2
:100C4800A0000A30F2000030F3005408A300A40109
:100C58002308F4002408F5000A168A11D4260A127B
:100C68008A117208303E0A168A11D6210A128A1190
:100C7800C73083120313A0000A30F2000030F300DB
:100C88005408A300A4012308F4002408F5000A1658
:100C98008A11C1250A128A117208303E0A168A1171
:100CA800D6210A128A11F52B080001308316031386
:100CB800A50706302506031D622E632E6C2EA5019E
:100CC80026080319682E6A2E01306B2E0030A60004
:100CD8001130831203132406031D732E742E8B2EDA
:100CE800B930F2004230F3009030F4000430F500DF
:100CF8000030F6000A168A1191240A128A11FA01A4
:100D080083160313A701053083120313DA005A0868
:100D1800031D8F2E902E922E3330D62F8316031359
:100D280027080319982E992E9B2E6630D62F04304B
:100D38007A020318A02EA12ECB2E4730F600903051
:100D4800F7008030F8000A168A115A230A128A110D
:100D5800831603132608031DB22EB32EBF2E7A085E
:100D6800C03E83120313A000FF300A168A11D62151
:100D78000A128A114F2F7A08C03E83120313A0006B
:100D880020300A168A11D6210A128A114F2F0430F0
:100D98007A02031CD02ED12E4F2F08307A02031866
:100DA800D62ED72E4F2F6930F6009030F7008030BE
:100DB800F8000A168A115A230A128A118316031395
:100DC8002608031DE82EE92EF52E7A08C03E831268
:100DD8000313A000FF300A168A11D6210A128A11BD
:100DE8004F2F7A08C03E83120313A00020300A1642
:100DF8008A11D6210A128A114F2F7A08B93E840027
:100E08003030831380007A08C03EA0002A300A16CA
:100E18008A11D6210A128A110130FA070530831285
:100E28000313DA0004307A06031D1B2F1C2F5E2FD4
:100E38003530F6009030F700C030F8000A168A11F5
:100E48005A230A128A115E2F7A08B93E840031307B
:100E5800831380007A08C03EA0002A300A168A113F
:100E6800D6210A128A110130FA07053083120313BA
:100E7800DA0004307A06031D422F432F5E2F3530E7
:100E8800F6009030F700C030F8000A168A115A238D
:100E98000A128A115E2F831203132308003A0319DA
:100EA800562F5E2F22082F3A0319012F183A0319DB
:100EB800282F5E2F08307A06031D632F642F992E82
:100EC800B930F200BD30F3000430F4000030F50012
:100ED8000A168A11D5240A128A1172087304031D8E
:100EE800762F772FB82F83160313C101BD30F70073
:100EF8000030F80000300A168A11AC220A128A1152
:100F08000130FA07F20101300A168A1121240A1267
:100F18008A115830F6009030F7008030F8000A1631
:100F28008A115A230A128A11F630F6009030F70017
:100F3800C230F8000A168A115A230A128A1101309F
:100F480083160313A7001A3083120313A7005E3019
:100F5800A6006D30A500A50BAF2FA60BAF2FA70BD2
:100F6800AF2FB62F7730D62FF20101300A168A112B
:100F780021240A128A117A30F6009030F700803066
:100F8800F8000A168A115A230A128A118D30F600BF
:100F98009130F700C530F8000A168A115A230A1250
:100FA8008A11A32F0800F6000A168A1562270A126A
:100FB8008A11A0300A168A1574270A128A1176082F
:100FC8000A168A1574270A128A1173080A168A15CE
:100FD80074270A128A110A168A156B270A128A11AF
:100FE8001430F5007930F400F40BF82FF50BF82FD6
:040FF800FD2F0800C1
:10100000831203130608F2003F30F2053F307206E8
:1010100003190B280C281B287B08031D10281128F6
:101020001B280130FB00720883160313AD008312E6
:101030000313DB0131283F307206031D20282128CD
:1010400031287B03031D252826283128FB010F307A
:101050005B0203182C282D283128831603132D0832
:101060006A287B03031D352836283F2810305B0291
:1010700003183B283C283F280130DB0769287B0305
:10108000031D43284428542810305B06031D4928BB
:101090004A28542837307206031D4F2850285428F8
:1010A0000130DB0780306A287B03031D582859284C
:1010B000692810305B06031D5E285F2869282F30E1
:1010C0007206031D6428652869280130DB0790300B
:1010D0006A283F300800031083120313460D470DA2
:1010E000CD004D08031D752876287F280030C700E5
:1010F0000030C6000030C5000030C400E0284408BD
:10110000C8004508C9004608CA004708CB001F3080
:101110000310CB0CCA0CC90CC80CFF3E031D882859
:101120004808CC00C617FF30C405FF30C505FF30A6
:10113000C6050030C7059630CD02CD1FA028A128D6
:10114000B9284D08803A973E0318A728A828A9284F
:10115000762801300310C70CC60CC50CC40CFF3E2A
:10116000031DAA280130CD07031DB728B828A928D8
:10117000D02820304D02031CBE28BF28CB2876285B
:101180000130C8000310C40DC50DC60DC70DC80B36
:10119000C2280130CD024D08031DCF28D028C02819
:1011A0004C080319D428D528E028C409C509C60964
:1011B000C709C40A0319C50A0319C60A0319C70ACD
:1011C000080083120313A40024080319E828E9285F
:1011D000FD28F91FEC28ED28FD287609A6007709DF
:1011E000A7007809A8007909A900A60A0319A70A87
:1011F0000319A80A0319A90A05297908A90078087A
:10120000A8007708A7007608A60079087804770474
:101210007604031D0C290D2916290030F900003031
:10122000F8000030F7000030F60096299630A5004F
:1012300024290130A50701300310A90CA80CA70C24
:10124000A60CFF3E031D1C29FE302905031D29297C
:101250002A29192944290130A5070130A6070030A1
:1012600003180130A707003003180130A807003029
:1012700003180130A90701300310A90CA80CA70C12
:10128000A60CFF3E031D3C29FF302905031D4929FB
:101290004A292B2956290130A5020130A00003104C
:1012A000A60DA70DA80DA90DA00B4F29A81B592904
:1012B0005A2960290230250203185F2960294B2929
:1012C0002518632964296C29FF30A605FF30A7057E
:1012D0007F30A805FF30A9050310A50C2508A00044
:1012E000A101A201A30118300310A00DA10DA20DB0
:1012F000A30DFF3E031D74292008A6042108A7049E
:101300002208A8042308A904240803198829892984
:101310008E29F91F8C298D298E29A9172908F900F2
:101320002808F8002708F7002608F60008008312AE
:101330000313A50055302206031D9F29A029AA29C1
:101340000A168A15B8270A128A1583120313D601C2
:101350000630DA005A08031DAE29AF29B12933300F
:10136000522A37302506031DB629B729C829560841
:101370000319BB29BC29C8290A168A15B8270A12DD
:101380008A15013083120313D6020530DA00DE29F4
:101390002F302506031DCD29CE29DE290430560223
:1013A0000318D329D429DE290A168A15B8270A1268
:1013B0008A15013083120313D607C529043056025B
:1013C0000318E329E429172A8030A0002A300A16DE
:1013D0008A11D6210A128A15831203135608A30014
:1013E0002307D93E840083130008F600840A00080E
:1013F0008403F7008230F8000A168A115A230A1271
:101400008A15831203135608A3002307DB3E8400CA
:1014100083130008F600840A00088403F700C23032
:10142000F8000A168A115A230A128A154F2A043024
:101430005606031D1C2A1D2A4F2A5608A3002307FF
:10144000D73E840083130008F600840A0008840352
:10145000F7008230F8000A168A115A230A128A15F8
:10146000831203135608A3002307D93E8400831375
:101470000008F600840A00088403F700C230F80070
:101480000A168A115A230A128A15C03083120313CE
:10149000A0002A300A168A11D6210A128A15831250
:1014A000031356080800FF3083120313AD00FF300A
:1014B000AE00AA015808031D5E2A5F2A692A21305E
:1014C000F3009030F4000A168A1186220A128A1557
:1014D000552B8630F3009130F4000A168A118622CB
:1014E0000A128A150A300A168A158A270A128A15DC
:1014F0000030F3009030F4000A168A1186220A1296
:101500008A150A300A168A158A270A128A150D309A
:101510000A168A158A270A128A15462B8312031384
:101520002D08013EAC000130AD070318AE0A0030B3
:10153000AE07AF010A30F2002C080A168A15ED2713
:101540000A128A15831203132F07053EAB002F08DA
:10155000203E84002B080A168A1102230A128A15DB
:1015600083138000013083120313AF070A302F0268
:10157000031CBB2ABC2A9A2A2D08303E0A168A155B
:101580008A270A128A154330F3009030F4000A16B5
:101590008A1186220A128A158312031320080A165A
:1015A0008A158A270A128A158312031321080A163C
:1015B0008A158A270A128A153A300A168A158A2746
:1015C0000A128A158312031322080A168A158A271B
:1015D0000A128A158312031323080A168A158A270A
:1015E0000A128A153A300A168A158A270A128A15AB
:1015F0008312031324080A168A158A270A128A15E9
:101600008312031325080A168A158A270A128A15D7
:101610004030F3009030F4000A168A1186220A1234
:101620008A158312031326080A168A158A270A12B6
:101630008A158312031327080A168A158A270A12A5
:101640008A153E30F3009030F4000A168A11862283
:101650000A128A158312031328080A168A158A2784
:101660000A128A158312031329080A168A158A2773
:101670000A128A150A300A168A158A270A128A154A
:101680000D300A168A158A270A128A158312031347
:101690002E08803AF60080307602031D512B580840
:1016A0002D02031C542B552B8E2A08008312031382
:1016B000A6005930F6009130F7008430F8000A1681
:1016C0008A115A230A128A15233083120313220621
:1016D000031D6B2B6C2B6F2BD5010530DA005A08DC
:1016E000031D732B742B762B3330662C3730260674
:1016F000031D7B2B7C2B8E2B0530DA000130D507A8
:101700000A3055060319852B862B8C2B5508580655
:10171000031D8B2B8C2B9D2BD5019D2B2F3026064B
:10172000031D932B942B9D2B55080319982B992B54
:101730009D2B0530DA000130D5020A30F200550841
:101740000A168A15ED270A128A15053E831203131D
:10175000A500A7012708AE3E8400270825070A1622
:101760008A1102230A128A15831380000130831222
:101770000313A7070B302702031CBF2BC02BAA2B78
:10178000C030A0000A30F2000030F3005508A3007A
:10179000A4012308F4002408F5000A168A11C125C3
:1017A0000A128A157208303E0A168A11D6210A12C8
:1017B0008A15C23083120313A000831603132E0868
:1017C0000A168A11D6210A128A15C330831203130E
:1017D000A000831603132F080A168A11D6210A12B5
:1017E0008A15C43083120313A0003A300A168A11F6
:1017F000D6210A128A15C53083120313A00083165E
:10180000031330080A168A11D6210A128A15C63027
:1018100083120313A0008316031331080A168A11DA
:10182000D6210A128A15C73083120313A0003A305A
:101830000A168A11D6210A128A15C8308312031398
:10184000A0008316031332080A168A11D6210A1241
:101850008A15C93083120313A000831603133308BB
:101860000A168A11D6210A128A15CB308312031365
:10187000A0008316031334080A168A11D6210A120F
:101880008A15CC3083120313A00083160313350886
:101890000A168A11D6210A128A15CE308312031332
:1018A000A0008316031336080A168A11D6210A12DD
:1018B0008A15CF3083120313A00083160313370851
:1018C0000A168A11D6210A128A15323008008312AC
:1018D00003133108BB008030BB053108B20032076A
:1018E000C200B01F742C752C762C421442080319C8
:1018F0007A2C7B2C8B2C420A031D7F2C802C882C6D
:101900000030B1000030B0000030AF000030AE0059
:10191000B017B101932C0030B1000030B00000309E
:10192000AF000030AE002D088039BB062D08B20094
:101930003207C300AC1F9D2C9E2C9F2C43144308E0
:101940000319A32CA42CB42C430A031DA82CA92CE6
:10195000B12C0030AD000030AC000030AB000030E6
:10196000AA00AC17AD01BC2C0030AD000030AC00BB
:101970000030AB000030AA002D082C042B042A04F0
:10198000031DC32CC42CDB2C0030B1000030B00090
:101990000030AF000030AE008030B0047F30B104C2
:1019A0003B08B1043108AD003008AC002F08AB0093
:1019B0002E08AA00302E4208031DDF2CE02CE92C53
:1019C0000030AD000030AC000030AB000030AA00A9
:1019D000302E4208B200B3013308B500430832028A
:1019E000B400031CB50334087F3EBC00350803185F
:1019F000013E003EBD003108BA003008B9002F0892
:101A0000B8002E08B7000030B1000030B000003040
:101A1000AF000030AE000030C1000030C000003028
:101A2000BF000030BE00C3015D2D43080319192D0E
:101A30001A2D3A2D0130B2000310B70DB80DB90DB3
:101A4000BA0DB20B1C2D0130B2000310AE0DAF0D5C
:101A5000B00DB10DB20B252DC11F2F2D302D312D05
:101A60002E140130B2000310BE0DBF0DC00DC10D0C
:101A7000B20B332D2D083A02031D482D2C083902D4
:101A8000031D482D2B083802031D482D2A08370254
:101A9000031C4B2D4C2D5B2D41172A08B7022B0838
:101AA000031C2B0FB8022C08031C2C0FB9022D08A5
:101AB000031C2D0FBA020130C3071A304302031C66
:101AC000622D632D152D3A083904380437040319A3
:101AD0006A2D6B2D8A2D3E148A2D0130B200031021
:101AE000AE0DAF0DB00DB10DB20B6F2DC11F792D25
:101AF0007A2D7B2D2E140130B2000310BE0DBF0DC8
:101B0000C00DC10DB20B7D2DFF30BC070318BD0AFF
:101B1000FF30BD07B01F8D2D8E2D6D2DC301C11F50
:101B2000922D932DAF2DFF303E05B200FF303F05C3
:101B3000B300FF304005B4007F304105B5003508E3
:101B40003404330432040319A62DA72DAA2D013025
:101B5000C300AF2D2E1CAD2DAE2DAF2DA72D4308EC
:101B60000319B32DB42DE52D0130AE070030031855
:101B70000130AF07003003180130B0070030031800
:101B80000130B107311CC52DC62DE52D2E08B20040
:101B90002F08B3003008B4003108B5000130B6009A
:101BA000350DB50CB40CB30CB20CB60BD02D3508FA
:101BB000B1003408B0003308AF003208AE00013085
:101BC000BC070318BD0A0030BD073D08803AFF007E
:101BD00080307F02031DEE2DFF303C02031CF12DEF
:101BE000F22D002EFF3083120313BC000030BD0025
:101BF0000030B1000030B0000030AF000030AE0067
:101C0000831203133D08803AFF0080307F02031DDA
:101C10000B2E01303C0203180E2E0F2E1C2E8312A9
:101C20000313BC01BD010030B1000030B000003032
:101C3000AF000030AE00BB01831203133C08C200AA
:101C4000421C232E242E262EB017282E7F30B005BE
:101C50004208B2000310320CB1003B08B104D22C90
:101C6000080083120313AA0011302206031D392E27
:101C70003A2E492E3F30AA00033083160313AC00DE
:101C8000C901CA01CB01CC0183120313D70105306E
:101C9000DA005A08031D4D2E4E2E502E3330FF2FE2
:101CA000023083120313A5004530A400A930A3001D
:101CB000A30B582EA40B582EA50B582E3730831289
:101CC00003132A06031D652E662E822E043057024A
:101CD00003186B2E6C2E822E5708C43EA0002A30AB
:101CE0000A168A11D6210A128A158312031357087D
:101CF000C93E84003130831380000130D70705309E
:101D0000DA00A02E2F302A06031D872E882EA02E43
:101D10000430570203188D2E8E2EA02E5708C43E75
:101D2000A0002A300A168A11D6210A128A158312B7
:101D300003135708C93E84003030831380007D2E82
:101D400004305706031DA52EA62EFE2F1A3083122F
:101D50000313A5005E30A4006D30A300A30BAE2ECC
:101D6000A40BAE2EA50BAE2EB52E83120313AB0122
:101D70002B08263E84002B080A168A1102230A1219
:101D80008A1583138000013083120313AB070430DC
:101D90002B02031CCC2ECD2EB82E2630F200C930DB
:101DA000F3000430F4000030F5000A168A11D5243F
:101DB0000A128A1572087304031DDF2EE02E0E2FFF
:101DC0000A168A15B8270A128A15F2010C300A166B
:101DD0008A1121240A128A15A53083120313A30045
:101DE000A30BF02EF32EAB30F6009030F7008130CD
:101DF000F8000A168A115A230A128A153330831200
:101E00000313A500BB30A400DF30A300A30B062FF3
:101E1000A40B062FA50B062F4430FF2F013083168D
:101E20000313AC022C08031D162F172F902F0A1630
:101E30008A15B8270A128A15F2010C300A168A117F
:101E400021240A128A15A53083120313A300A30BC1
:101E5000272F2A2F9B30F6009030F7008030F800B3
:101E60000A168A115A230A128A157530F600913023
:101E7000F700C030F8000A168A115A230A128A1590
:101E80009430F6009130F700CC30F8000A168A1131
:101E90005A230A128A153C3083120313D900842F67
:101EA000C930A0000A30F2000030F3005908A30046
:101EB000A4012308F4002408F5000A168A11D42688
:101EC0000A128A157208303E0A168A11D6210A12A1
:101ED0008A15CA3083120313A0000A30F2000030C2
:101EE000F3005908A300A4012308F4002408F50016
:101EF0000A168A11C1250A128A157208303E0A167E
:101F00008A11D6210A128A15831203135908031D58
:101F10008A2F8B2F502F033083160313AC00D42F3E
:101F20000A168A15B8270A128A15F2010C300A1609
:101F30008A1121240A128A15A53083120313A300E3
:101F4000A30BA02FA32FC930F6009030F7008030EC
:101F5000F8000A168A115A230A128A15C130831210
:101F60000313A000831603132C08303E0A168A11AF
:101F7000D6210A128A151E30F6009130F700C330C0
:101F8000F8000A168A115A230A128A154D30831254
:101F90000313A5001930A4004F30A300A30BCE2FCC
:101FA000A40BCE2FA50BCE2F0A168A15B8270A121E
:101FB0008A15E730F6009030F7008130F8000A16F5
:101FC0008A115A230A128A15F201C4300A168A119C
:101FD00021240A128A15F2010F300A168A112124CF
:101FE0000A128A15A53083120313A300A30BF62F40
:101FF000F92F83120313D7010530DA0032300800BD
:1020000023342034203420342034203454346934B0
:102010006D3465342034203420342034203420348E
:1020200020344534763465346E34743420342034AE
:1020300020342034203453347034653465346434AF
:1020400000344E346F3420344C346F34673473347E
:10205000203441347634613469346C346134623410
:102060006C3465342034213400342034203420345E
:1020700020342034203420342034203420342034C0
:1020800020342034203420342034203400344534AB
:102090006E3474346534723420346E34653477347D
:1020A00020347034773464343A34203420340034AB
:1020B000503461347334733477346F34723464342D
:1020C00020346334683461346E3467346534643486
:1020D0000034523465342D3465346E3474346534D0
:1020E000723420346E34653477342034703477346D
:1020F00064340034503461347334733477346F345F
:1021000072346434203420346334683461346E347F
:10211000673465340034543469346D3465342034A4
:102120003C34483448343A344D344D343A345334E2
:1021300053343E34003459346F34753420346134B0
:1021400072346534203462346C346F3463346B34ED
:102150006534643400344C346F34673469346E341D
:1021600020345334753463346334653473347334D6
:1021700021340034543449344D344534203420342F
:102180002034203420344534203420345334503427
:102190000034573472346F346E3467342034703402
:1021A00061347334733477346F347234643400348C
:1021B0004334683461346E346734653420347034A9
:1021C0006134733473347734723464340034453496
:1021D0006E34743465347234203450346134733462
:1021E000733477346F347234643400347334753438
:1021F00063346334653473347334663475346C34E7
:102200006C34793420340034543469346D3465349A
:1022100020344334683461346E3467346534643454
:10222000003444346F3477346E346C346F3461343A
:10223000643420346C346F34673400346134743463
:10224000743465346D347034743420346C346534D3
:102250006634743400345334753463346334653411
:1022600073347334663475346C346C3479340034BC
:102270004C346F34673467346534643420346434E8
:10228000613474346134003463346C3465346134E3
:102290007234653464342E342E34213400344334A3
:1022A0006C3465346134723420346C346F34673488
:1022B0000034563469346534773420346C346F34E8
:1022C00067347334003453346534743420347434D4
:1022D00069346D3465340034563469346534773488
:1022E00020346C346F3467340034573461346934CB
:1022F0007434203466346F347234003443347534AB
:102300007434653463346F346D3400344C346F345A
:102310006734733420343A340034663461346934B9
:102320006C3465346434003473346534633473342A
:102330000034313430343034313400344F3470347C
:1023400065346E3400344734313400344734323429
:1023500000344734333400344734343400344434A4
:102360004C34003456344C34003447344E3400344A
:1023700043344F34003447345234003453345434EB
:02238000003427
:102386007E088A007F0882000A168A11C3210A166F
:102396008A118000840A04087D0603190034FF0AA6
:1023A6000319FE0AC72983120313A100F2012008AC
:1023B6000A168A1121240A168A11F201F20A8312D8
:1023C600031321080A168A1121240A168A11080005
:1023D600BB349134B5349134A3349134A63491345A
:1023E600A9349134AC3491346C3491344F349134F3
:1023F6001134913463349134D83490344F344E349C
:102406000034F4000A168A1562270A168A11D0309B
:102416000A168A1574270A168A1174080A168A1566
:1024260074270A168A1173080A168A1574270A165B
:102436008A110A168A156B270A168A110800F200F5
:102446000A168A15AB270A168A11831603139115E5
:102456000A168A15AB270A168A1183120313130864
:10246600F3007203031D382A392A3D2A8316031303
:102476009116412A83160313911211167308080048
:102486007208F7007408F6007308F500F30A0319DA
:10249600F40A760883120313FF00750884000A16EF
:1024A6008A1500200A168A11FF007708F70A8400A9
:1024B6007F08831780000008031D622A632A452AC5
:1024C60008000A30831203135806031D6B2A6C2A70
:1024D6006D2AD8010A30F20058080A168A15ED2727
:1024E6000A168A11053E83120313A0000130D8078D
:1024F600AE30F7000030F80020080A168A11AC2228
:102506000A168A1108009B2A7408FF0073088400C3
:102516000A168A1500200A168A110A168A158A27AB
:102526000A168A110130F3070318F40A0030F4077B
:10253600740883120313FF00730884000A168A15B1
:1025460000200A168A11003A031DAA2AAB2A872AF6
:102556000800F900C62A7808FF00770884000A16E2
:102566008A1500200A168A11F30079080A128A11C0
:10257600D7270A168A110130F7070318F80A003020
:10258600F8070130F907780883120313FF0077086C
:1025960084000A168A1500200A168A11003A031DBD
:1025A600D52AD62AAE2A0800F4000A168A1562270A
:1025B6000A168A11D0300A168A1574270A168A1145
:1025C60074080A168A1574270A168A110A168A15B5
:1025D6007F270A168A11D1300A168A1574270A1619
:1025E6008A1100300A168A1122220A168A11F5006B
:1025F6000A168A156B270A168A1175080800F40050
:102606000A168A1562270A168A11A0300A168A1532
:1026160074270A168A1174080A168A1574270A1668
:102626008A110A168A157F270A168A11A1300A16F8
:102636008A1574270A168A1100300A168A11222270
:102646000A168A11F5000A168A156B270A168A11C8
:102656007508080083120313D8010A168A15B827CD
:102666000A168A113830F6009130F7008230F800E9
:102676000A168A115A230A168A114430F600913036
:10268600F700C230F8000A168A115A230A168A1170
:10269600403083120313A2006A30A1009730A000D5
:1026A600A00B532BA10B532BA20B532B0800F201AB
:1026B60078080A168A1121240A168A11782BF20143
:1026C600F20A7708FF00760884000A168A150020A9
:1026D6000A168A110A168A1121240A168A1101304D
:1026E600F6070318F70A0030F70777088312031373
:1026F600FF00760884000A168A1500200A168A1139
:10270600003A031D872B882B622B080083120313C4
:10271600981718162608AA002708AB002808AC0048
:102726002908AD0004300310AA0DAB0DAC0DAD0D9C
:10273600FF3E031D962B2D08F5002C08F4002B08F0
:10274600F3002A08F2000130F9003130F8002D308C
:10275600F7000030F6000A168A119A270A168A111F
:102766007208FF3E831603139900080083120313B1
:1027760094152608AA002708AB002808AC002908EB
:10278600AD0002300310AA0DAB0DAC0DAD0DFF3E32
:10279600031DC52B2D08F5002C08F4002B08F300AB
:1027A6002A08F2000130F9003130F8002D30F70028
:1027B6000030F6000A168A119A270A168A1172083C
:1027C600FF3E831603139300831203139416080027
:1027D600831203138C1CF02BF12B1A2C0130831659
:1027E6000313A3070318A40A0030A407E230230644
:1027F600043003192406031D012C022C172C831206
:10280600031359080319082C092C0C2C0130D90282
:10281600132C5A080319102C112C132C0130DA0230
:1028260083160313A301A401831203138C107108EA
:102836008A00700E8300FE0E7E0E0900F5007218E7
:10284600252C292C8312031309152C2C8312031310
:1028560009117508F03988008914A630F300F30BC6
:10286600322C000083120313891075080F39F30008
:1028760003300310F30DFF3E031D3C2C0310730DB4
:1028860088008914A630F300F30B472C000083124E
:10289600031389101B30F4009E30F300F30B512C08
:1028A600F40B512C00000800003083120313A9001A
:1028B6000130A8008630A700A030A6000A168A11AB
:1028C600B9230A168A110A168A15C9270A168A1101
:1028D6000A168A1595270A168A110A168A154D2789
:1028E6000A168A110A168A1553270A168A11003003
:1028F60083120313A9000030A8002530A7008030FA
:10290600A6000A168A1189230A168A110A168A153A
:10291600A0270A168A118B170B1708007208F900F0
:10292600B92C0130F5020030031CF603F6027408D8
:10293600F8007308F700F30A0319F40A78088312FB
:102946000313FF00770884000A168A1500200A166A
:102956008A11FF007908F90A84007F088313800032
:102966000008031DB72CB82CB92CC62C75087604A4
:10297600031DBE2CBF2C942CC62C7908840083130F
:1029860080010130F9070130F5020030031CF6031F
:10299600F602750A031DD32C760A031DD32CD42CFC
:1029A600C02C08000130F4020030031CF503F502C8
:1029B600740A031DE22C750A031DE22CE32CF02C8D
:1029C600F201F3011F2D0130F2070130F307013048
:1029D600F4020030031CF503F50272088400831329
:1029E60000080319F72CF82C112D73088400000831
:1029F6000319FE2CFF2C112D740875040319042DE0
:102A0600052D112D730884000008F6007208840055
:102A1600000876060319102D112DE62C7308840084
:102A26000008F600720884000008F70076087702AE
:102A3600F200F301031CF303080002300A168A11A0
:102A4600D7220A168A1183160313A00001300A162C
:102A56008A11D7220A168A1183160313A1000030A1
:102A66000A168A11D7220A168A1183160313A200A0
:102A76002008F60004300310F60CFF3E031D3E2D21
:102A860076080339303EC20020080F39303EC300B5
:102A96002108F60004300310F60CFF3E031D4E2DF0
:102AA60076080739303EC40021080F39303EC5008C
:102AB6002208F60004300310F60CFF3E031D5E2DBF
:102AC60076080739303EC60022080F39303EC70067
:102AD600C8010800BA30F6009030F7008230F800DE
:102AE6000A168A115A230A168A110A168A1172269A
:102AF6000A168A11831203132208F6000130F70022
:102B0600CB30F8000A168A115A230A168A11CE30DB
:102B160083120313A0000A30F2000030F3002308EA
:102B2600A400A5012408F4002508F5000A168A1158
:102B3600D4260A168A117208303E0A168A11D62140
:102B46000A168A11CF3083120313A0000A30F2004E
:102B56000030F3002308A400A5012408F40025088A
:102B6600F5000A168A11C1250A168A117208303E26
:102B76000A168A11D6210A168A110800F701F51FCE
:102B8600C52DC62DCD2DF409F509F40A0319F50A4C
:102B96000130F700F31FD02DD12DD62DF209F30900
:102BA600F20A0319F30A720873040319DB2DDC2DEC
:102BB600092E0130F600E82D01300310F20DF30D59
:102BC600FF3E031DE02D0130F607F31FEB2DEC2D24
:102BD600DF2D73087502031DF22D72087402031CA3
:102BE600F52DF62DFC2D7208F4027308031CF5036F
:102BF600F50201300310F30CF20CFF3E031DFD2D10
:102C06000130F602031D082E092EEC2D7708031954
:102C16000D2E0E2E132EF409F509F40A0319F50AE2
:102C26007508F3007408F20008000A168A112025B8
:102C36000A168A11AE30F200C230F3000030F400FA
:102C46000630F5000030F6000A168A1191240A169D
:102C56008A11B430F200831203132108F30022080C
:102C6600F4000230F5000030F6000A168A119124AD
:102C76000A168A110A30F2000030F3008312031399
:102C86002308A400A5012408F4002508F5000A1667
:102C96008A11D4260A168A117208303E8316031347
:102CA600B6000A30F2000030F30083120313230843
:102CB600A400A5012408F4002508F5000A168A11C7
:102CC600C1250A168A117208303E83160313B7000F
:102CD600B8010A168A1164220A168A1108000A1611
:102CE6008A1120250A168A11C13083120313A00007
:102CF6008316031342080A168A11D6210A168A1168
:102D0600C23083120313A0008316031343080A1666
:102D16008A11D6210A168A11C33083120313A00022
:102D26003A300A168A11D6210A168A11C43083123D
:102D36000313A0008316031344080A168A11D6212A
:102D46000A168A11C53083120313A00083160313D3
:102D560045080A168A11D6210A168A11C630831228
:102D66000313A0003A300A168A11D6210A168A11D0
:102D7600C73083120313A0008316031346080A16EE
:102D86008A11D6210A168A11C83083120313A000AD
:102D96008316031347080A168A11D6210A168A11C2
:102DA6000800F701F31FD82ED92EE02EF209F309F9
:102DB600F20A0319F30A0130F700F51FE32EE42E99
:102DC600EB2EF409F509F40A0319F50A0130F706A2
:102DD600F801F901720873040319F22EF32E282F55
:102DE6000130F600FF2E01300310F20DF30DFF3E09
:102DF600031DF72E0130F607F31F022F032FF62EC1
:102E060001300310F80DF90DFF3E031D042F730862
:102E16007502031D102F72087402031C132F142F42
:102E26001B2F7208F4027308031CF503F5027814CD
:102E360001300310F30CF20CFF3E031D1C2F013072
:102E4600F602031D272F282F032F770803192C2F8F
:102E56002D2F322FF809F909F80A0319F90A79080A
:102E6600F3007808F2000800C330F700CD30F60012
:102E7600F60B3B2FF70B3B2FF20133300A168A1164
:102E860021240A168A111B30F7009E30F600F60B35
:102E96004A2FF70B4A2F0000F20133300A168A1127
:102EA60021240A168A11A630F600F60B582F0000C8
:102EB600F20133300A168A1121240A168A11632F69
:102EC600642F0000F20102300A168A1121240A1624
:102ED6008A11A630F600F60B6E2F0000F20128309C
:102EE6000A168A1121240A168A11A630F600F60B54
:102EF6007A2F0000F20101300A168A1121240A16DF
:102F06008A110430F7003D30F600F60B882FF70BD8
:102F1600882F8D2FF2010C300A168A1121240A16E9
:102F26008A11A630F600F60B962F00000800003036
:102F360083120313A4000030A3000030A200003067
:102F4600A10075087404730472040319AB2FAC2F27
:102F5600F72F0130A500BA2F0130A0000310F20DA3
:102F6600F30DF40DF50DA00BB12F0130A507F51FDC
:102F7600BD2FBE2FAF2F0130A0000310A10DA20D53
:102F8600A30DA40DA00BC02F75087902031DD52F24
:102F960074087802031DD52F73087702031DD52FF9
:102FA60072087602031CD82FD92FE82F7208F60272
:102FB6007308031C730FF7027408031C740FF802DE
:102FC6007508031C750FF902211401300310F50C66
:102FD600F40CF30CF20CFF3E031DE92F0130A502A1
:102FE600031DF62FF72FBE2F2408F5002308F40043
:102FF6002208F3002108F2000800FF1B0A288313A9
:103006007F1883170008840A0319FF0A08007F083F
:0E3016007F398A000408840A0319FF0A820029
:103E9A008316031306083F388600080083160313A7
:103EAA009F17831203131F14080064008001840AF9
:103EBA0004060319003404065B2F0A168A15AB2779
:103ECA000A168A1583160313111408000A168A158E
:103EDA00AB270A168A158316031311150800F20078
:103EEA000A168A15AB270A168A1572088312031353
:103EFA00930008000A168A156B270A168A150A16ED
:103F0A008A1562270A168A150800F20072088312B7
:103F1A00031399000C1E922F932F8F2F0C12080057
:103F2A00831603138801091189100A168A11372783
:103F3A000A168A150800FA308316031392008C14A5
:103F4A008312031312149214121108008316031316
:103F5A001419B02FB12FAB2F11081F39031DB62F1B
:103F6A00B72FAB2F0800F20101300A168A1121245B
:103F7A000A168A150430F7003D30F600F60BC32FF7
:103F8A00F70BC32FC82F080000300A168A11D72250
:103F9A000A168A15F6007F30F6057608F300003017
:103FAA000A168A1104220A168A15080083120313B4
:103FBA001F151F19E12FE22FDE2F1E08F5008316A9
:103FCA0003131E08F4007508F3007408F2000800D1
:103FDA00F400F301741CF22FF32FF52F7208F30784
:103FEA000310F20D0310F40C7408031DFD2FFE2FAD
:0E3FFA00EF2F73080800FF3FFF3FFF3FFF3F20
:02400E00FB3F76
:00000001FF
