:060000000A128A110C280F
:10000800FE00030EF0000A08F1000A168A11CA2F32
:100018000A128A110F288313DF30FD001530FE0005
:10002800D330FF00C63084000A168A11AF250A12A1
:100038008A11A0308400C6300A168A111B250A12BC
:100048008A11523084005C300A168A111B250A1264
:100058008A11FA01FB0183010A128A11332801303F
:1000680083160317A400A2019C01831603135C08DE
:10007800831603179E00831603135D088316031760
:100088009F00831603135E0883160317A000C6306B
:100098008400903083120313CE000C30CF008313FA
:1000A8000008D000040AD1004E08840083175008C5
:1000B8008000040ACE0051088400CF0B5328831611
:1000C8000317A1010A168A1111270A128A119E30F4
:1000D80083120313A100A2010A128A15C0220A1270
:1000E8008A112B30F7008930F80000300A168A117F
:1000F800BB260A128A110A128A1542240A128A1188
:1001080083160317A5003E302506031D8C288D286D
:10011800A8289E30F2003F30F3008930F4000A1618
:100128008A112B260A128A119E3083120313A1000A
:1001380083160317220883120313A2000A128A15D2
:10014800C0220A128A1179293D302506031DAD28DF
:10015800AE28DD28063021020318B328B428DD288C
:100168009E30F200210883120313CE004E07903E02
:10017800840083170008F300840A00088403F4004D
:100188000A168A112B260A128A11013083160317C0
:10019800A1079E3083120313A100831603172208B8
:1001A80083120313A2000A128A15C0220A128A11A6
:1001B80079293B302506031DE228E3280029210878
:1001C8000319E728E82800290130A1029E30F2002F
:1001D800210883120313CE004E07903E8400831734
:1001E8000008F300840A00088403F4000A168A1140
:1001F8002B260A128A11CD2837302506031905291E
:1002080006290C292F302506031D0B290C293E2908
:100218002403031D102911293E290230A40011309E
:10022800A3000A168A1163250A128A11A230F60061
:100238008830F7008130F8000A168A1169270A12F7
:100248008A11F201C4300A128A1550210A128A1141
:10025800F2010F300A128A1550210A128A11A530AC
:1002680083120313CE00CE0B37293A2983120313C6
:100278001215792980302506031D43294429792937
:1002880003302406031D49294A297929682905309C
:10029800A4002330A3000A168A1163250A128A11C2
:1002A8003A290630A4000A168A1163250A128A110F
:1002B80079290730A40079290830A4007929093060
:1002C800A4001130A3004F291D08003A03194B2937
:1002D800013A03195529033A03195D29013A03190B
:1002E8006029073A0319632979290A168A1186258C
:1002F8000A128A11720883120313CE007308CF0002
:10030800D001D1015108F9005008F8004F08F70052
:100318004E08F60000300A128A1583250A128A113F
:10032800790883120313B1007808B0007708AF008A
:100338007608AE004130AD002430AC000030AB0090
:100348000030AA000A128A116D240A128A11831237
:1003580003132D08C7002C08C6002B08C5002A085F
:10036800C4000A128A150D250A128A118312031372
:10037800440883160317A200872A9E3083120313AA
:10038800A20083160317220883120313A3000A127C
:100398008A1515220A128A119B2A0130831603171F
:1003A800A4000A168A1163250A128A11F2010C3078
:1003B8000A128A1550210A128A11A53083120313D2
:1003C800CE00CE0BE529E8298312031312119B2ACC
:1003D800033083160317A400F2010C300A128A15A1
:1003E80050210A128A11A53083120313CE00CE0BB6
:1003F800FB29FE29553083160317A3008312031324
:1004080012157F28230883120313A20083160317EB
:1004180025080A128A11A2220A128A11333A0319EC
:10042800D129773A0319EC299B2A2308831203134D
:10043800A2008316031725080A128A1539260A12FC
:100448008A11831603179D0033301D06031D2D2ABC
:100458002E2A9B2A0A168A1163250A128A1101304C
:1004680083160317A400E829230883120313A200A4
:100478008316031725080A128A15EF260A128A110D
:10048800333A031D482A492A9B2A01308316031749
:10049800A4000A168A1163250A128A11E8290A1685
:1004A8008A113C270A128A110A168A1163250A1230
:1004B8008A11013083160317A4009B2A0A168A1191
:1004C80063250A128A11033083160317A400FE2934
:1004D800250883120313CE00CF014E08A2004F084F
:1004E800A30083160317230883120313A4000A1218
:1004F8008A1137260A128A11333A03192E2A443AE6
:100508000319622A9B2A2408013A0319C129033ACC
:100518000319062A013A0319192A063A0319382A2F
:10052800033A0319532A0F3A03196C2A9B2A831694
:100538000317A3017F280A128A110C2883120313B8
:10054800AA0011302206031DAA2AAB2ABA2A3F3074
:10055800AA000330D50083160313C201C301C401E6
:10056800C50183120313D6010530D9005908031DAC
:10057800BE2ABF2AC12A33306C2C023083120313DF
:10058800A5004530A400A930A300A30BC92AA40BD9
:10059800C92AA50BC92A3730831203132A06031D5B
:1005A800D62AD72AF32A043056020318DC2ADD2A71
:1005B800F32A5608C43EA0002A300A168A11BE251E
:1005C8000A128A11831203135608C23E840031307E
:1005D800831380000130D6070530D900112B2F3046
:1005E8002A06031DF82AF92A112B0430560203188B
:1005F800FE2AFF2A112B5608C43EA0002A300A16EC
:100608008A11BE250A128A11831203135608C23EA4
:100618008400303083138000EE2A04305606031D10
:10062800162B172B6B2C1A3083120313A5005E3080
:10063800A4006D30A300A30B1F2BA40B1F2BA50B2D
:100648001F2B262B83120313AB012B08263E840095
:100658002B080A168A116E260A128A118313800043
:10066800013083120313AB0704302B02031C3D2B0C
:100678003E2B292B2630F200C230F3000430F40060
:100688000030F5000A128A15CA210A128A11720866
:100698007304031D502B512B7F2B0A168A116325D7
:1006A8000A128A11F2010C300A128A1550210A1214
:1006B8008A11A53083120313A300A30B612B642BAB
:1006C8006630F6008830F7008130F8000A168A1183
:1006D80069270A128A11333083120313A500BB302D
:1006E800A400DF30A300A30B772BA40B772BA50B5B
:1006F800772B44306C2C013083120313D502550834
:10070800031D872B882BFF2B0A168A1163250A12D3
:100718008A11F2010C300A128A1550210A128A1124
:10072800A53083120313A300A30B982B9B2B5630E1
:10073800F6008830F7008030F8000A168A11692719
:100748000A128A111630F6008930F700C030F80016
:100758000A168A1169270A128A112630F60089308A
:10076800F700CC30F8000A168A1169270A128A1194
:100778003C3083120313D800F52BC930A0000A308F
:10078800F2000030F3005808A300A4012308F40085
:100798002408F5000A128A157C230A128A117208A5
:1007A800303E0A168A11BE250A128A11CA308312EF
:1007B8000313A0000A30F2000030F3005808A30029
:1007C800A4012308F4002408F5000A128A156922F6
:1007D8000A128A117208303E0A168A11BE250A12B8
:1007E8008A11831203135808031DFB2BFC2BC12B02
:1007F8000330D500412C0A168A1163250A128A1182
:10080800F2010C300A128A1550210A128A11A530F9
:1008180083120313A300A30B0F2C122C8430F600B1
:100828008830F7008030F8000A168A1169270A1202
:100838008A11C13083120313A0005508303E0A16EE
:100848008A11BE250A128A11CC30F6008830F700CA
:10085800C330F8000A168A1169270A128A114D3026
:1008680083120313A5001930A4004F30A300A30B73
:100878003B2CA40B3B2CA50B3B2C0A168A11632599
:100888000A128A11A230F6008830F7008130F80089
:100898000A168A1169270A128A11F201C4300A124B
:1008A8008A1550210A128A11F2010F300A128A158C
:1008B80050210A128A11A53083120313A300A30B37
:1008C800632C662C83120313D6010530D90032300D
:1008D8000800831203133108BB008030BB053108C0
:1008E800B2003207C200B01F7A2C7B2C7C2C421439
:1008F80042080319802C812C912C420A031D852C57
:10090800862C8E2C0030B1000030B0000030AF00D3
:100918000030AE00B017B101992C0030B1000030A2
:10092800B0000030AF000030AE002D088039BB06A3
:100938002D08B2003207C300AC1FA32CA42CA52C91
:10094800431443080319A92CAA2CBA2C430A031DE3
:10095800AE2CAF2CB72C0030AD000030AC0000300E
:10096800AB000030AA00AC17AD01C22C0030AD00BE
:100978000030AC000030AB000030AA002D082C0479
:100988002B042A04031DC92CCA2CE12C0030B10009
:100998000030B0000030AF000030AE008030B0044E
:1009A8007F30B1043B08B1043108AD003008AC0019
:1009B8002F08AB002E08AA00362E4208031DE52C8E
:1009C800E62CEF2C0030AD000030AC000030AB005E
:1009D8000030AA00362E4208B200B3013308B50031
:1009E80043083202B400031CB50334087F3EBC0040
:1009F80035080318013E003EBD003108BA00300832
:100A0800B9002F08B8002E08B7000030B100003038
:100A1800B0000030AF000030AE000030C100003040
:100A2800C0000030BF000030BE00C301632D430882
:100A380003191F2D202D402D0130B2000310B70DD2
:100A4800B80DB90DBA0DB20B222D0130B20003104A
:100A5800AE0DAF0DB00DB10DB20B2B2DC11F352D45
:100A6800362D372D2E140130B2000310BE0DBF0DE8
:100A7800C00DC10DB20B392D2D083A02031D4E2DA4
:100A88002C083902031D4E2D2B083802031D4E2D4C
:100A98002A083702031C512D522D612D41172A08AF
:100AA800B7022B08031C2B0FB8022C08031C2C0FB1
:100AB800B9022D08031C2D0FBA020130C3071A30E2
:100AC8004302031C682D692D1B2D3A08390438048C
:100AD80037040319702D712D902D3E14902D01307F
:100AE800B2000310AE0DAF0DB00DB10DB20B752DE8
:100AF800C11F7F2D802D812D2E140130B2000310CF
:100B0800BE0DBF0DC00DC10DB20B832DFF30BC074C
:100B18000318BD0AFF30BD07B01F932D942D732D08
:100B2800C301C11F982D992DB52DFF303E05B20088
:100B3800FF303F05B300FF304005B4007F3041056A
:100B4800B50035083404330432040319AC2DAD2D37
:100B5800B02D0130C300B52D2E1CB32DB42DB52DED
:100B6800AD2D43080319B92DBA2DEB2D0130AE0771
:100B7800003003180130AF07003003180130B00708
:100B8800003003180130B107311CCB2DCC2DEB2DD3
:100B98002E08B2002F08B3003008B4003108B500A1
:100BA8000130B600350DB50CB40CB30CB20CB60B55
:100BB800D62D3508B1003408B0003308AF0032082C
:100BC800AE000130BC070318BD0A0030BD073D0860
:100BD800803AFF0080307F02031DF42DFF303C0275
:100BE800031CF72DF82D062EFF3083120313BC00CB
:100BF8000030BD000030B1000030B0000030AF0060
:100C08000030AE00831203133D08803AFF008030A5
:100C18007F02031D112E01303C020318142E152EDD
:100C2800222E83120313BC01BD010030B100003035
:100C3800B0000030AF000030AE00BB0183120313D8
:100C48003C08C200421C292E2A2E2C2EB0172E2E0C
:100C58007F30B0054208B2000310320CB1003B08E7
:100C6800B104D82C0800013083160313A5070630F9
:100C78002506031D402E412E4C2EA5018312031379
:100C880052080319482E4A2E01304B2E0030D2004C
:100C9800113083122406031D522E532E6A2EB230B1
:100CA800F2000D30F3008830F4000430F500003015
:100CB800F6000A128A1586210A128A11FA01831689
:100CC8000313A601053083120313D9005908031D25
:100CD8006E2E6F2E712E3330AD2F83160313260818
:100CE8000319772E782E7A2E6630AD2F04307A02CB
:100CF80003187F2E802EA62E1230F6008830F700BB
:100D08008030F8000A168A1169270A128A1183129C
:100D180003135208031D912E922E9C2E7A08C03E72
:100D2800A000FF300A168A11BE250A128A11262F42
:100D38007A08C03EA00020300A168A11BE250A1281
:100D48008A11262F04307A02031CAB2EAC2E262FD4
:100D580008307A020318B12EB22E262F3430F6004E
:100D68008830F7008030F8000A168A1169270A12BD
:100D78008A11831203135208031DC32EC42ECE2ECC
:100D88007A08C03EA000FF300A168A11BE250A1252
:100D98008A11262F7A08C03EA00020300A168A1130
:100DA800BE250A128A11262F7A08B23E84003030F6
:100DB800831380007A08C03EA0002A300A168A11E0
:100DC800BE250A128A110130FA070530831203136F
:100DD800D90004307A06031DF22EF32E352F003089
:100DE800F6008830F700C030F8000A168A11692723
:100DF8000A128A11352F7A08B23E840031308313E3
:100E080080007A08C03EA0002A300A168A11BE2542
:100E18000A128A110130FA07053083120313D90028
:100E280004307A06031D192F1A2F352F0030F600CB
:100E38008830F700C030F8000A168A1169270A12AC
:100E48008A11352F831203132308003A03192D2F13
:100E5800352F22082F3A0319D82E183A0319FF2ED6
:100E6800352F08307A06031D3A2F3B2F782EB230E3
:100E7800F200B630F3000430F4000030F5000A1236
:100E88008A15CA210A128A1172087304031D4D2F8C
:100E98004E2F8F2F83160313BA01B630F700003098
:100EA800F80000300A168A11BB260A128A1101308E
:100EB800FA07F20101300A128A1550210A128A1122
:100EC8002330F6008830F7008030F8000A168A11BF
:100ED80069270A128A11B130F6008830F700C2304B
:100EE800F8000A168A1169270A128A110130831636
:100EF8000313A6001A3083120313A7005E30A6005E
:100F08006D30A500A50B862FA60B862FA70B862F65
:100F18008D2F7730AD2FF20101300A128A1550213A
:100F28000A128A114530F6008830F7008030F80040
:100F38000A168A1169270A128A111F30F6008930A9
:100F4800F700C530F8000A168A1169270A128A11B3
:100F58007A2F080002300A168A11E6260A128A1128
:100F680083160313A00001300A168A11E6260A1216
:100F78008A1183160313A10000300A168A11E62687
:100F88000A128A1183160313A2002008F6000430FF
:100F98000310F60CFF3E031DCC2F76080339303EB4
:100FA800BB0020080F39303EBC002108F600043091
:100FB8000310F60CFF3E031DDC2F76080739303E80
:100FC800BD0021080F39303EBE002208F60004306B
:100FD8000310F60CFF3E031DEC2F76080739303E50
:0E0FE800BF0022080F39303EC000C1010800D2
:101000002034203420342034203420342034203440
:101010002034203420342034203420342034203430
:101020002034003445346E347434653472342034E2
:101030006E346534773420347034773464343A3421
:1010400020342034003450346134733473347734B2
:101050006F347234643420346334683461346E34F1
:101060006734653464340034523465342D34653467
:101070006E3474346534723420346E3465347734AD
:101080002034703477346434003450346134733431
:10109000733477346F3472346434203420346334DE
:1010A000683461346E3467346534003459346F34D5
:1010B00075342034613472346534203462346C34D5
:1010C0006F3463346B346534643400344C346F34BF
:1010D000673469346E342034533475346334633484
:1010E00065347334733421340034543449344D340A
:1010F0004534203420342034203420344534203406
:101100002034533450340034573472346F346E34D6
:1011100067342034703461347334733477346F340B
:101120007234643400344334683461346E34673468
:1011300065342034703461347334733477347234EA
:101140006434003445346E3474346534723420347D
:10115000503461347334733477346F34723464349C
:1011600000347334753463346334653473347334E6
:10117000663475346C346C3479342034003444343F
:101180006F3477346E346C346F34613464342034AB
:101190006C346F34673400346134743474346534BF
:1011A0006D347034743420346C3465346634743483
:1011B00000344C346F34673467346534643420341D
:1011C0006434613474346134003463346C346534B1
:1011D00061347234653464342E342E342134003456
:1011E00043346C3465346134723420346C346F347D
:1011F00067340034563469346534773420346C34C1
:101200006F346734733400345334653474342034A9
:10121000743469346D34653400345634693465345B
:10122000773420346C346F3467340034573461348D
:1012300069347434203466346F3472340034663464
:10124000613469346C346534643400347334653427
:101250006334733400343134303430343134003456
:101260004734313400344734323400344734333473
:10127000003447343434003447344E34003443347B
:101280004F340034473452340034FA308316031399
:1012900092008C148312031312149214121108007A
:1012A000F5007218542958298312031309155B2974
:1012B0008312031309117508F03988008914A630C8
:1012C000F300F30B612900008312031389107508E2
:1012D0000F39F30003300310F30DFF3E031D6B299C
:1012E0000310730D88008914A630F300F30B7629E0
:1012F00000008312031389101B30F4009E30F300AA
:10130000F30B8029F40B8029000008007208F90013
:10131000AE290130F5020030031CF603F602740812
:10132000F8007308F700F30A0319F40A7808831227
:101330000313FF00770884000A168A1100200A129E
:101340008A15FF007908F90A84007F08831380005A
:101350000008031DAC29AD29AE29BB297508760408
:10136000031DB329B4298929BB2979088400831373
:1013700080010130F9070130F5020030031CF6034B
:10138000F602750A031DC829760A031DC829C92952
:10139000B52908000130F4020030031CF503F50202
:1013A000740A031DD729750A031DD729D829E529F1
:1013B000F201F301142A0130F2070130F307013082
:1013C000F4020030031CF503F50272088400831355
:1013D00000080319EC29ED29062A73088400000887
:1013E0000319F329F429062A740875040319F92945
:1013F000FA29062A730884000008F600720884009F
:10140000000876060319052A062ADB2973088400DA
:101410000008F600720884000008F70076087702DA
:10142000F200F301031CF30308007530F600883066
:10143000F7008230F8000A168A1169270A128A1505
:101440000A128A151A230A128A1583120313220814
:10145000F6000130F700CB30F8000A168A11692730
:101460000A128A15CE3083120313A0000A30F2004C
:101470000030F3002308A400A5012408F400250887
:10148000F5000A128A157C230A128A157208303E6A
:101490000A168A11BE250A128A15CF308312031349
:1014A000A0000A30F2000030F3002308A400A501D8
:1014B0002408F4002508F5000A128A1569220A1288
:1014C0008A157208303E0A168A11BE250A128A153C
:1014D0000800F701F51F6D2A6E2A752AF409F5092F
:1014E000F40A0319F50A0130F700F31F782A792A64
:1014F0007E2AF209F309F20A0319F30A7208730447
:101500000319832A842AB12A0130F600902A013077
:101510000310F20DF30DFF3E031D882A0130F6077C
:10152000F31F932A942A872A73087502031D9A2AA7
:1015300072087402031C9D2A9E2AA42A7208F402CF
:101540007308031CF503F50201300310F30CF20CD1
:10155000FF3E031DA52A0130F602031DB02AB12A61
:10156000942A77080319B52AB62ABB2AF409F50983
:10157000F40A0319F50A7508F3007408F20008006C
:101580000A128A11AE270A128A15A730F200BB3060
:10159000F3000030F4000630F5000030F6000A12C7
:1015A0008A1586210A128A15AD30F20083120313C0
:1015B0002108F3000130F4000230F5000030F6009D
:1015C0000A128A1586210A128A150A30F2000030A2
:1015D000F300831203132208A300A4012308F400DC
:1015E0002408F5000A128A157C230A128A1572084B
:1015F000303E83160313AF000A30F2000030F300D0
:10160000831203132208A300A4012308F400240872
:10161000F5000A128A1569220A128A157208303EEC
:1016200083160313B000B1010A168A114C260A1260
:101630008A1508000A128A11AE270A128A15C130CB
:1016400083120313A000831603133B080A168A11A2
:10165000BE250A128A15C23083120313A000831616
:1016600003133C080A168A11BE250A128A15C330D4
:1016700083120313A0003A300A168A11BE250A12FB
:101680008A15C43083120313A000831603133D0888
:101690000A168A11BE250A128A15C5308312031351
:1016A000A000831603133E080A168A11BE250A12EB
:1016B0008A15C63083120313A0003A300A168A1125
:1016C000BE250A128A15C73083120313A0008316A1
:1016D00003133F080A168A11BE250A128A15C8305C
:1016E00083120313A0008316031340080A168A11FD
:1016F000BE250A128A150800F701F31F802B812BE3
:10170000882BF209F309F20A0319F30A0130F700F2
:10171000F51F8B2B8C2B932BF409F509F40A031975
:10172000F50A0130F706F801F9017208730403198C
:101730009A2B9B2BD02B0130F600A72B01300310E6
:10174000F20DF30DFF3E031D9F2B0130F607F31F33
:10175000AA2BAB2B9E2B01300310F80DF90DFF3E89
:10176000031DAC2B73087502031DB82B720874029D
:10177000031CBB2BBC2BC32B7208F4027308031C85
:10178000F503F502781401300310F30CF20CFF3E60
:10179000031DC42B0130F602031DCF2BD02BAB2B26
:1017A00077080319D42BD52BDA2BF809F909F80A95
:1017B0000319F90A7908F3007808F2000800C33029
:1017C000F700CD30F600F60BE32BF70BE32BF2011D
:1017D00033300A128A1550210A128A151B30F7007D
:1017E0009E30F600F60BF22BF70BF22B0000F20105
:1017F00033300A128A1550210A128A15A630F600D3
:10180000F60B002C0000F20133300A128A15502129
:101810000A128A150B2C0C2C0000F20102300A125D
:101820008A1550210A128A15A630F600F60B162CDE
:101830000000F20128300A128A1550210A128A1576
:10184000A630F600F60B222C0000F20101300A123D
:101850008A1550210A128A150430F7003D30F6002F
:10186000F60B302CF70B302C352CF2010C300A1211
:101870008A1550210A128A15A630F600F60B3E2C66
:1018800000000800831203130608F2003F30F2053F
:101890003F30720603194D2C4E2C592C7B08031D2A
:1018A000522C532C592C0130FB007208DB00DA015A
:1018B0006D2C3F307206031D5E2C5F2C6D2C7B035C
:1018C000031D632C642C6D2CFB010F305A0203188E
:1018D0006A2C6B2C6D2C5B08A62C7B03031D712CD2
:1018E000722C7B2C10305A020318772C782C7B2C0E
:1018F0000130DA07A52C7B03031D7F2C802C902C54
:1019000010305A06031D852C862C902C3730720619
:10191000031D8B2C8C2C902C0130DA078030A62CE8
:101920007B03031D942C952CA52C10305A06031D07
:101930009A2C9B2CA52C2F307206031DA02CA12CB9
:10194000A52C0130DA079030A62C3F30080000307B
:1019500083120313A4000030A3000030A200003063
:10196000A10075087404730472040319B82CB92C0F
:10197000042D0130A500C72C0130A0000310F20D8A
:10198000F30DF40DF50DA00BBE2C0130A507F51FCE
:10199000CA2CCB2CBC2C0130A0000310A10DA20D31
:1019A000A30DA40DA00BCD2C75087902031DE22C0C
:1019B00074087802031DE22C73087702031DE22CE1
:1019C00072087602031CE52CE62CF52C7208F60250
:1019D0007308031C730FF7027408031C740FF802DA
:1019E0007508031C750FF902211401300310F50C62
:1019F000F40CF30CF20CFF3E031DF62C0130A50293
:101A0000031D032D042DCB2C2408F5002308F4001E
:101A10002208F3002108F2000800031083120313C8
:101A2000460D470DCD004D08031D172D182D212DF6
:101A30000030C7000030C6000030C5000030C400D0
:101A4000822D4408C8004508C9004608CA00470856
:101A5000CB001F300310CB0CCA0CC90CC80CFF3EC6
:101A6000031D2A2D4808CC00C617FF30C405FF30DF
:101A7000C505FF30C6050030C7059630CD02CD1F25
:101A8000422D432D5B2D4D08803A973E0318492D7A
:101A90004A2D4B2D182D01300310C70CC60CC50C58
:101AA000C40CFF3E031D4C2D0130CD07031D592DE5
:101AB0005A2D4B2D722D20304D02031C602D612DAF
:101AC0006D2D182D0130C8000310C40DC50DC60DB5
:101AD000C70DC80B642D0130CD024D08031D712DBB
:101AE000722D622D4C080319762D772D822DC40995
:101AF000C509C609C709C40A0319C50A0319C60AD4
:101B00000319C70A080083120313A4002408031949
:101B10008A2D8B2D9F2DF91F8E2D8F2D9F2D7609B0
:101B2000A6007709A7007809A8007909A900A60AE4
:101B30000319A70A0319A80A0319A90AA72D7908E6
:101B4000A9007808A8007708A7007608A6007908F9
:101B5000780477047604031DAE2DAF2DB82D003028
:101B6000F9000030F8000030F7000030F600382EA1
:101B70009630A500C62D0130A50701300310A90C31
:101B8000A80CA70CA60CFF3E031DBE2DFE30290598
:101B9000031DCB2DCC2DBB2DE62D0130A50701302B
:101BA000A607003003180130A707003003180130E2
:101BB000A807003003180130A90701300310A90C51
:101BC000A80CA70CA60CFF3E031DDE2DFF30290537
:101BD000031DEB2DEC2DCD2DF82D0130A50201308C
:101BE000A0000310A60DA70DA80DA90DA00BF12DA7
:101BF000A81BFB2DFC2D022E023025020318012EFE
:101C0000022EED2D2518052E062E0E2EFF30A605D0
:101C1000FF30A7057F30A805FF30A9050310A50CEC
:101C20002508A000A101A201A30118300310A00DF6
:101C3000A10DA20DA30DFF3E031D162E2008A60424
:101C40002108A7042208A8042308A90424080319CA
:101C50002A2E2B2E302EF91F2E2E2F2E302EA91786
:101C60002908F9002808F8002708F7002608F600D8
:101C7000080083120313A50055302206031D412ED0
:101C8000422E4C2E0A168A1163250A128A158312D7
:101C90000313D4010630D9005908031D502E512ECC
:101CA000532E3330EE2E37302506031D582E592E75
:101CB0006B2E0430540203185E2E5F2E6B2E0A1614
:101CC0008A1163250A128A15013083120313D4077F
:101CD0000530D900802E2F302506031D702E712E61
:101CE000802E54080319752E762E802E0A168A111E
:101CF00063250A128A15013083120313D402682E59
:101D000004305406031D852E862EB92EC030A00047
:101D10002A300A168A11BE250A128A158312031365
:101D20005408A3002307D03E840083130008F60064
:101D3000840A00088403F7008230F8000A168A112A
:101D400069270A128A15831203135408A300230774
:101D5000D23E840083130008F600840A000884033E
:101D6000F700C230F8000A168A1169270A128A158C
:101D7000EB2E8030A0002A300A168A11BE250A12E6
:101D80008A15831203135408A3002307D23E84004C
:101D900083130008F600840A00088403F7008230E9
:101DA000F8000A168A1169270A128A15831203138A
:101DB0005408A3002307D43E840083130008F600D0
:101DC000840A00088403F700C230F8000A168A115A
:101DD00069270A128A158312031354080800831214
:101DE0000313A600FA30F6008830F7008430F800BC
:101DF0000A168A1169270A128A15233083120313DF
:101E00002206031D042F052F082FD3010530D9000A
:101E10005908031D0C2F0D2F0F2F3330FF2F373094
:101E20002606031D142F152F272F0530D90001304A
:101E3000D3075308570603191E2F1F2F252F0A30CB
:101E40005306031D242F252F362FD301362F2F3075
:101E50002606031D2C2F2D2F362F53080319312F43
:101E6000322F362F0530D9000130D3020A30F2006C
:101E700053080A168A1198250A128A15053E8312FC
:101E80000313A500A7012708A73E840027082507FC
:101E90000A168A116E260A128A15831380000130F1
:101EA00083120313A7070B302702031C582F592F47
:101EB000432FC030A0000A30F2000030F300530876
:101EC000A300A4012308F4002408F5000A128A15CF
:101ED00069220A128A157208303E0A168A11BE2536
:101EE0000A128A15C23083120313A000831603134B
:101EF00027080A168A11BE250A128A15C3308312D2
:101F00000313A0008316031328080A168A11BE259E
:101F10000A128A15C43083120313A0003A300A163D
:101F20008A11BE250A128A15C53083120313A00038
:101F30008316031329080A168A11BE250A128A1568
:101F4000C63083120313A000831603132A080A164F
:101F50008A11BE250A128A15C73083120313A00006
:101F60003A300A168A11BE250A128A15C830831221
:101F70000313A000831603132B080A168A11BE252B
:101F80000A128A15C93083120313A00083160313A3
:101F90002C080A168A11BE250A128A15CB30831224
:101FA0000313A000831603132D080A168A11BE25F9
:101FB0000A128A15CC3083120313A0008316031370
:101FC0002E080A168A11BE250A128A15CE308312EF
:101FD0000313A000831603132F080A168A11BE25C7
:101FE0000A128A15CF3083120313A000831603133D
:101FF00030080A168A11BE250A128A1532300800E6
:10200000FF1B0A2883137F1883170008840A03190B
:10201000FF0A08007F087F398A000408840A031930
:04202000FF0A820031
:102A1C008316031306083F38860008008316031339
:102A2C009F17831203131F14080064008001840A8B
:102A3C0004060319003404061C2D0A168A115625A7
:102A4C000A168A1183160313111408000A168A1128
:102A5C0056250A168A118316031311150800F20065
:102A6C000A168A1156250A168A1172088312031344
:102A7C00930008000A168A112C250A168A110A16C8
:102A8C008A1123250A168A1108008316031388015C
:102A9C00091189100A128A15DF230A168A110800F7
:102AAC008316031314195B2D5C2D562D11081F3939
:102ABC00031D612D622D562D0800F20101300A1202
:102ACC008A1550210A168A110430F7003D30F600A1
:102ADC00F60B6E2DF70B6E2D732D080000300A16B9
:102AEC008A11E6260A168A11F6007F30F60576085A
:102AFC00F30000300A168A11EC250A168A11080018
:102B0C00831203131F151F198C2D8D2D892D1E0853
:102B1C00F500831603131E08F4007508F3007408FF
:102B2C00F2000800F400F301741C9D2D9E2DA02DC5
:102B3C007208F3070310F20D0310F40C7408031D54
:102B4C00A82DA92D9A2D730808007E088A007F08ED
:102B5C0082000A168A11AB250A168A118000840A93
:102B6C0004087D0603190034FF0A0319FE0AAF2D71
:102B7C0083120313A100F20120080A128A155021B6
:102B8C000A168A11F201F20A8312031321080A129F
:102B9C008A1550210A168A110800423489343C34B3
:102BAC008934303489343334893436348934393483
:102BBC0089340D348934F0348834BF348834043487
:102BCC008934933488344F344E340034F4000A166C
:102BDC008A1123250A168A11D0300A168A11352536
:102BEC000A168A1174080A168A1135250A168A11D2
:102BFC0073080A168A1135250A168A110A168A11C3
:102C0C002C250A168A110800F2000A168A1156257C
:102C1C000A168A118316031391150A168A11562562
:102C2C000A168A11831203131308F3007203031D8F
:102C3C00202E212E252E831603139116292E831652
:102C4C00031391121116730808007208F700740828
:102C5C00F6007308F500F30A0319F40A76088312D8
:102C6C000313FF00750884000A168A1100200A1647
:102C7C008A11FF007708F70A84007F088317800009
:102C8C000008031D4A2E4B2E2D2E08000A308312ED
:102C9C0003135706031D532E542E552ED7010A30FD
:102CAC00F20057080A168A1198250A168A11053E51
:102CBC0083120313A0000130D707A730F7000030B0
:102CCC00F80020080A168A11BB260A168A11080079
:102CDC00F4000A168A1123250A168A11A0300A1646
:102CEC008A1135250A168A1174080A168A11352597
:102CFC000A168A110A168A1140250A168A11A13061
:102D0C000A168A1135250A168A1100300A168A11FC
:102D1C000A260A168A11F50075080800F6000A162C
:102D2C008A1123250A168A11A0300A168A11352514
:102D3C000A168A1176080A168A1135250A168A117E
:102D4C0073080A168A1135250A168A110A168A1171
:102D5C002C250A168A111430F5007930F400F40B86
:102D6C00B52EF50BB52EBA2E0800F900D52E780825
:102D7C00FF00770884000A168A1100200A168A11AF
:102D8C00F30079080A168A1194260A168A11013062
:102D9C00F7070318F80A0030F8070130F90778082C
:102DAC0083120313FF00770884000A168A1100208F
:102DBC000A168A11003A031DE42EE52EBD2E0800DA
:102DCC00F4000A168A1123250A168A11D0300A1625
:102DDC008A1135250A168A1174080A168A113525A6
:102DEC000A168A110A168A1140250A168A11D13040
:102DFC000A168A1135250A168A1100300A168A110C
:102E0C000A260A168A11F5000A168A112C250A16AA
:102E1C008A1175080800003083120313A9000130D1
:102E2C00A8008630A700A030A6000A168A119827A1
:102E3C000A168A110A168A1174250A168A110A169C
:102E4C008A114B250A168A110A168A110E250A16A2
:102E5C008A110A168A1114250A168A110A128A1561
:102E6C0045210A168A118B170B17080083120313BE
:102E7C00D7010A168A1163250A168A11D930F60071
:102E8C008830F7008230F8000A168A1169270A1672
:102E9C008A11E530F6008830F700C230F8000A16C7
:102EAC008A1169270A168A11403083120313A20073
:102EBC006A30A1009730A000A00B622FA10B622FEB
:102ECC00A20B622F0800F20178080A128A15502111
:102EDC000A168A11872FF201F20A7708FF0076088A
:102EEC0084000A168A1100200A168A110A128A1501
:102EFC0050210A168A110130F6070318F70A003020
:102F0C00F707770883120313FF00760884000A166C
:102F1C008A1100200A168A11003A031D962F972F4A
:102F2C00712F08008312031394152608AA00270892
:102F3C00AB002808AC002908AD0002300310AA0D24
:102F4C00AB0DAC0DAD0DFF3E031DA42F2D08F500F0
:102F5C002C08F4002B08F3002A08F2000130F900C9
:102F6C003130F8002D30F7000030F6000A128A15C7
:102F7C00A7240A168A117208FF3E831603139300C6
:102F8C008312031394160800831203138C1CCF2F87
:102F9C00D02FF92F013083160313A3070318A40AAB
:102FAC000030A407E2302306043003192406031D65
:102FBC00E02FE12FF62F8312031358080319E72F84
:102FCC00E82FEB2F0130D802F22F59080319EF2FFD
:102FDC00F02FF22F0130D90283160313A301A401A1
:102FEC00831203138C1071088A00700E8300FE0E7E
:042FFC007E0E09003C
:08400000FF3FFF3FFF3FFF3FC0
:02400E00FB3F76
:00000001FF
